{
  "contractName": "RealEstateMarketplace",
  "abi": [
    {
      "anonymous": false,
      "inputs": [
        {
          "indexed": true,
          "internalType": "uint256",
          "name": "propertyId",
          "type": "uint256"
        },
        {
          "indexed": false,
          "internalType": "string",
          "name": "location",
          "type": "string"
        },
        {
          "indexed": false,
          "internalType": "uint256",
          "name": "price",
          "type": "uint256"
        },
        {
          "indexed": false,
          "internalType": "address",
          "name": "owner",
          "type": "address"
        }
      ],
      "name": "PropertyListed",
      "type": "event"
    },
    {
      "anonymous": false,
      "inputs": [
        {
          "indexed": true,
          "internalType": "uint256",
          "name": "propertyId",
          "type": "uint256"
        },
        {
          "indexed": false,
          "internalType": "address",
          "name": "oldOwner",
          "type": "address"
        },
        {
          "indexed": false,
          "internalType": "address",
          "name": "newOwner",
          "type": "address"
        },
        {
          "indexed": false,
          "internalType": "uint256",
          "name": "price",
          "type": "uint256"
        }
      ],
      "name": "PropertySold",
      "type": "event"
    },
    {
      "anonymous": false,
      "inputs": [
        {
          "indexed": true,
          "internalType": "uint256",
          "name": "propertyId",
          "type": "uint256"
        },
        {
          "indexed": false,
          "internalType": "uint256",
          "name": "newPrice",
          "type": "uint256"
        },
        {
          "indexed": false,
          "internalType": "bool",
          "name": "isForSale",
          "type": "bool"
        }
      ],
      "name": "PropertyUpdated",
      "type": "event"
    },
    {
      "inputs": [
        {
          "internalType": "uint256",
          "name": "",
          "type": "uint256"
        }
      ],
      "name": "properties",
      "outputs": [
        {
          "internalType": "string",
          "name": "location",
          "type": "string"
        },
        {
          "internalType": "uint256",
          "name": "price",
          "type": "uint256"
        },
        {
          "internalType": "address",
          "name": "owner",
          "type": "address"
        },
        {
          "internalType": "bool",
          "name": "isForSale",
          "type": "bool"
        }
      ],
      "stateMutability": "view",
      "type": "function",
      "constant": true
    },
    {
      "inputs": [
        {
          "internalType": "uint256",
          "name": "",
          "type": "uint256"
        }
      ],
      "name": "propertyOwner",
      "outputs": [
        {
          "internalType": "address",
          "name": "",
          "type": "address"
        }
      ],
      "stateMutability": "view",
      "type": "function",
      "constant": true
    },
    {
      "inputs": [
        {
          "internalType": "string",
          "name": "_location",
          "type": "string"
        },
        {
          "internalType": "uint256",
          "name": "_price",
          "type": "uint256"
        }
      ],
      "name": "listProperty",
      "outputs": [],
      "stateMutability": "nonpayable",
      "type": "function"
    },
    {
      "inputs": [
        {
          "internalType": "uint256",
          "name": "_propertyId",
          "type": "uint256"
        }
      ],
      "name": "buyProperty",
      "outputs": [],
      "stateMutability": "payable",
      "type": "function",
      "payable": true
    },
    {
      "inputs": [],
      "name": "getPropertyCount",
      "outputs": [
        {
          "internalType": "uint256",
          "name": "",
          "type": "uint256"
        }
      ],
      "stateMutability": "view",
      "type": "function",
      "constant": true
    },
    {
      "inputs": [
        {
          "internalType": "uint256",
          "name": "_propertyId",
          "type": "uint256"
        }
      ],
      "name": "getProperty",
      "outputs": [
        {
          "internalType": "string",
          "name": "location",
          "type": "string"
        },
        {
          "internalType": "uint256",
          "name": "price",
          "type": "uint256"
        },
        {
          "internalType": "address",
          "name": "owner",
          "type": "address"
        },
        {
          "internalType": "bool",
          "name": "isForSale",
          "type": "bool"
        }
      ],
      "stateMutability": "view",
      "type": "function",
      "constant": true
    },
    {
      "inputs": [
        {
          "internalType": "uint256",
          "name": "_propertyId",
          "type": "uint256"
        }
      ],
      "name": "isOwner",
      "outputs": [
        {
          "internalType": "bool",
          "name": "",
          "type": "bool"
        }
      ],
      "stateMutability": "view",
      "type": "function",
      "constant": true
    },
    {
      "inputs": [
        {
          "internalType": "uint256",
          "name": "_propertyId",
          "type": "uint256"
        },
        {
          "internalType": "uint256",
          "name": "_newPrice",
          "type": "uint256"
        }
      ],
      "name": "updatePropertyPrice",
      "outputs": [],
      "stateMutability": "nonpayable",
      "type": "function"
    },
    {
      "inputs": [
        {
          "internalType": "uint256",
          "name": "_propertyId",
          "type": "uint256"
        }
      ],
      "name": "toggleForSale",
      "outputs": [],
      "stateMutability": "nonpayable",
      "type": "function"
    }
  ],
  "bytecode": "0x608060405234801561001057600080fd5b506001600081905550611d81806100286000396000f3fe6080604052600436106100865760003560e01c8063a32018b911610059578063a32018b91461014f578063d1fedbc214610178578063de9476ad146101b5578063f7b10808146101de578063fce401b21461021e57610086565b806332665ffb1461008b57806339c7639c146100cb5780636fa830a6146101085780637326b90114610124575b600080fd5b34801561009757600080fd5b506100b260048036038101906100ad9190611097565b610247565b6040516100c294939291906111bf565b60405180910390f35b3480156100d757600080fd5b506100f260048036038101906100ed9190611097565b6103f7565b6040516100ff919061120b565b60405180910390f35b610122600480360381019061011d9190611097565b6104a9565b005b34801561013057600080fd5b506101396108eb565b6040516101469190611226565b60405180910390f35b34801561015b57600080fd5b5061017660048036038101906101719190611097565b6108f8565b005b34801561018457600080fd5b5061019f600480360381019061019a9190611097565b610ae4565b6040516101ac9190611241565b60405180910390f35b3480156101c157600080fd5b506101dc60048036038101906101d79190611391565b610b17565b005b3480156101ea57600080fd5b5061020560048036038101906102009190611097565b610d3a565b60405161021594939291906111bf565b60405180910390f35b34801561022a57600080fd5b50610245600480360381019061024091906113ed565b610e2f565b005b606060008060006001805490508510610295576040517f08c379a000000000000000000000000000000000000000000000000000000000815260040161028c90611479565b60405180910390fd5b6000600186815481106102ab576102aa611499565b5b90600052602060002090600302016040518060800160405290816000820180546102d4906114f7565b80601f0160208091040260200160405190810160405280929190818152602001828054610300906114f7565b801561034d5780601f106103225761010080835404028352916020019161034d565b820191906000526020600020905b81548152906001019060200180831161033057829003601f168201915b50505050508152602001600182015481526020016002820160009054906101000a900473ffffffffffffffffffffffffffffffffffffffff1673ffffffffffffffffffffffffffffffffffffffff1673ffffffffffffffffffffffffffffffffffffffff1681526020016002820160149054906101000a900460ff161515151581525050905080600001518160200151826040015183606001519450945094509450509193509193565b60006001805490508210610440576040517f08c379a000000000000000000000000000000000000000000000000000000000815260040161043790611479565b60405180910390fd5b3373ffffffffffffffffffffffffffffffffffffffff166002600084815260200190815260200160002060009054906101000a900473ffffffffffffffffffffffffffffffffffffffff1673ffffffffffffffffffffffffffffffffffffffff16149050919050565b6104b1610ff4565b60018054905081106104f8576040517f08c379a00000000000000000000000000000000000000000000000000000000081526004016104ef90611479565b60405180910390fd5b60006001828154811061050e5761050d611499565b5b906000526020600020906003020190508060020160149054906101000a900460ff1661056f576040517f08c379a000000000000000000000000000000000000000000000000000000000815260040161056690611574565b60405180910390fd5b3373ffffffffffffffffffffffffffffffffffffffff168160020160009054906101000a900473ffffffffffffffffffffffffffffffffffffffff1673ffffffffffffffffffffffffffffffffffffffff1603610601576040517f08c379a00000000000000000000000000000000000000000000000000000000081526004016105f8906115e0565b60405180910390fd5b8060010154341015610648576040517f08c379a000000000000000000000000000000000000000000000000000000000815260040161063f9061164c565b60405180910390fd5b60008160020160009054906101000a900473ffffffffffffffffffffffffffffffffffffffff169050600082600101549050338360020160006101000a81548173ffffffffffffffffffffffffffffffffffffffff021916908373ffffffffffffffffffffffffffffffffffffffff16021790555060008360020160146101000a81548160ff021916908315150217905550336002600086815260200190815260200160002060006101000a81548173ffffffffffffffffffffffffffffffffffffffff021916908373ffffffffffffffffffffffffffffffffffffffff16021790555060008273ffffffffffffffffffffffffffffffffffffffff16826040516107529061169d565b60006040518083038185875af1925050503d806000811461078f576040519150601f19603f3d011682016040523d82523d6000602084013e610794565b606091505b50509050806107d8576040517f08c379a00000000000000000000000000000000000000000000000000000000081526004016107cf906116fe565b60405180910390fd5b600082346107e6919061174d565b9050600081111561089f5760003373ffffffffffffffffffffffffffffffffffffffff16826040516108179061169d565b60006040518083038185875af1925050503d8060008114610854576040519150601f19603f3d011682016040523d82523d6000602084013e610859565b606091505b505090508061089d576040517f08c379a0000000000000000000000000000000000000000000000000000000008152600401610894906117cd565b60405180910390fd5b505b857fddd64180d9701c7ede08673ac8106484ff983a472929330d4fbde4e35d65cb068533866040516108d3939291906117ed565b60405180910390a250505050506108e8611043565b50565b6000600180549050905090565b600180549050811061093f576040517f08c379a000000000000000000000000000000000000000000000000000000000815260040161093690611479565b60405180910390fd5b3373ffffffffffffffffffffffffffffffffffffffff166002600083815260200190815260200160002060009054906101000a900473ffffffffffffffffffffffffffffffffffffffff1673ffffffffffffffffffffffffffffffffffffffff16146109e0576040517f08c379a00000000000000000000000000000000000000000000000000000000081526004016109d790611896565b60405180910390fd5b600181815481106109f4576109f3611499565b5b906000526020600020906003020160020160149054906101000a900460ff161560018281548110610a2857610a27611499565b5b906000526020600020906003020160020160146101000a81548160ff021916908315150217905550807f0ebe5c59e5dc700dcb789c33b0e9bd5e015ef98b751dfa5b083e9d4c520b89e460018381548110610a8657610a85611499565b5b90600052602060002090600302016001015460018481548110610aac57610aab611499565b5b906000526020600020906003020160020160149054906101000a900460ff16604051610ad99291906118b6565b60405180910390a250565b60026020528060005260406000206000915054906101000a900473ffffffffffffffffffffffffffffffffffffffff1681565b6000825111610b5b576040517f08c379a0000000000000000000000000000000000000000000000000000000008152600401610b529061192b565b60405180910390fd5b60008111610b9e576040517f08c379a0000000000000000000000000000000000000000000000000000000008152600401610b9590611997565b60405180910390fd5b600060405180608001604052808481526020018381526020013373ffffffffffffffffffffffffffffffffffffffff16815260200160011515815250905060018190806001815401808255809150506001900390600052602060002090600302016000909190919091506000820151816000019081610c1d9190611b63565b506020820151816001015560408201518160020160006101000a81548173ffffffffffffffffffffffffffffffffffffffff021916908373ffffffffffffffffffffffffffffffffffffffff16021790555060608201518160020160146101000a81548160ff0219169083151502179055505050600060018080549050610ca4919061174d565b9050336002600083815260200190815260200160002060006101000a81548173ffffffffffffffffffffffffffffffffffffffff021916908373ffffffffffffffffffffffffffffffffffffffff160217905550807fe0de464e657fdeb1f668e5e64fb92e159b463403ee20baa688fe16a63b0542c4858533604051610d2c93929190611c35565b60405180910390a250505050565b60018181548110610d4a57600080fd5b9060005260206000209060030201600091509050806000018054610d6d906114f7565b80601f0160208091040260200160405190810160405280929190818152602001828054610d99906114f7565b8015610de65780601f10610dbb57610100808354040283529160200191610de6565b820191906000526020600020905b815481529060010190602001808311610dc957829003601f168201915b5050505050908060010154908060020160009054906101000a900473ffffffffffffffffffffffffffffffffffffffff16908060020160149054906101000a900460ff16905084565b6001805490508210610e76576040517f08c379a0000000000000000000000000000000000000000000000000000000008152600401610e6d90611479565b60405180910390fd5b3373ffffffffffffffffffffffffffffffffffffffff166002600084815260200190815260200160002060009054906101000a900473ffffffffffffffffffffffffffffffffffffffff1673ffffffffffffffffffffffffffffffffffffffff1614610f17576040517f08c379a0000000000000000000000000000000000000000000000000000000008152600401610f0e90611cbf565b60405180910390fd5b60008111610f5a576040517f08c379a0000000000000000000000000000000000000000000000000000000008152600401610f5190611997565b60405180910390fd5b8060018381548110610f6f57610f6e611499565b5b906000526020600020906003020160010181905550817f0ebe5c59e5dc700dcb789c33b0e9bd5e015ef98b751dfa5b083e9d4c520b89e48260018581548110610fbb57610fba611499565b5b906000526020600020906003020160020160149054906101000a900460ff16604051610fe89291906118b6565b60405180910390a25050565b600260005403611039576040517f08c379a000000000000000000000000000000000000000000000000000000000815260040161103090611d2b565b60405180910390fd5b6002600081905550565b6001600081905550565b6000604051905090565b600080fd5b600080fd5b6000819050919050565b61107481611061565b811461107f57600080fd5b50565b6000813590506110918161106b565b92915050565b6000602082840312156110ad576110ac611057565b5b60006110bb84828501611082565b91505092915050565b600081519050919050565b600082825260208201905092915050565b60005b838110156110fe5780820151818401526020810190506110e3565b60008484015250505050565b6000601f19601f8301169050919050565b6000611126826110c4565b61113081856110cf565b93506111408185602086016110e0565b6111498161110a565b840191505092915050565b61115d81611061565b82525050565b600073ffffffffffffffffffffffffffffffffffffffff82169050919050565b600061118e82611163565b9050919050565b61119e81611183565b82525050565b60008115159050919050565b6111b9816111a4565b82525050565b600060808201905081810360008301526111d9818761111b565b90506111e86020830186611154565b6111f56040830185611195565b61120260608301846111b0565b95945050505050565b600060208201905061122060008301846111b0565b92915050565b600060208201905061123b6000830184611154565b92915050565b60006020820190506112566000830184611195565b92915050565b600080fd5b600080fd5b7f4e487b7100000000000000000000000000000000000000000000000000000000600052604160045260246000fd5b61129e8261110a565b810181811067ffffffffffffffff821117156112bd576112bc611266565b5b80604052505050565b60006112d061104d565b90506112dc8282611295565b919050565b600067ffffffffffffffff8211156112fc576112fb611266565b5b6113058261110a565b9050602081019050919050565b82818337600083830152505050565b600061133461132f846112e1565b6112c6565b9050828152602081018484840111156113505761134f611261565b5b61135b848285611312565b509392505050565b600082601f8301126113785761137761125c565b5b8135611388848260208601611321565b91505092915050565b600080604083850312156113a8576113a7611057565b5b600083013567ffffffffffffffff8111156113c6576113c561105c565b5b6113d285828601611363565b92505060206113e385828601611082565b9150509250929050565b6000806040838503121561140457611403611057565b5b600061141285828601611082565b925050602061142385828601611082565b9150509250929050565b7f50726f706572747920646f6573206e6f74206578697374000000000000000000600082015250565b60006114636017836110cf565b915061146e8261142d565b602082019050919050565b6000602082019050818103600083015261149281611456565b9050919050565b7f4e487b7100000000000000000000000000000000000000000000000000000000600052603260045260246000fd5b7f4e487b7100000000000000000000000000000000000000000000000000000000600052602260045260246000fd5b6000600282049050600182168061150f57607f821691505b602082108103611522576115216114c8565b5b50919050565b7f50726f7065727479206973206e6f7420666f722073616c650000000000000000600082015250565b600061155e6018836110cf565b915061156982611528565b602082019050919050565b6000602082019050818103600083015261158d81611551565b9050919050565b7f43616e6e6f742062757920796f7572206f776e2070726f706572747900000000600082015250565b60006115ca601c836110cf565b91506115d582611594565b602082019050919050565b600060208201905081810360008301526115f9816115bd565b9050919050565b7f4e6f7420656e6f756768204554482073656e7400000000000000000000000000600082015250565b60006116366013836110cf565b915061164182611600565b602082019050919050565b6000602082019050818103600083015261166581611629565b9050919050565b600081905092915050565b50565b600061168760008361166c565b915061169282611677565b600082019050919050565b60006116a88261167a565b9150819050919050565b7f4661696c656420746f2073656e642045544820746f2073656c6c657200000000600082015250565b60006116e8601c836110cf565b91506116f3826116b2565b602082019050919050565b60006020820190508181036000830152611717816116db565b9050919050565b7f4e487b7100000000000000000000000000000000000000000000000000000000600052601160045260246000fd5b600061175882611061565b915061176383611061565b925082820390508181111561177b5761177a61171e565b5b92915050565b7f4661696c656420746f20726566756e6420657863657373204554480000000000600082015250565b60006117b7601b836110cf565b91506117c282611781565b602082019050919050565b600060208201905081810360008301526117e6816117aa565b9050919050565b60006060820190506118026000830186611195565b61180f6020830185611195565b61181c6040830184611154565b949350505050565b7f4f6e6c79206f776e65722063616e206368616e67652073616c6520737461747560008201527f7300000000000000000000000000000000000000000000000000000000000000602082015250565b60006118806021836110cf565b915061188b82611824565b604082019050919050565b600060208201905081810360008301526118af81611873565b9050919050565b60006040820190506118cb6000830185611154565b6118d860208301846111b0565b9392505050565b7f4c6f636174696f6e2063616e6e6f7420626520656d7074790000000000000000600082015250565b60006119156018836110cf565b9150611920826118df565b602082019050919050565b6000602082019050818103600083015261194481611908565b9050919050565b7f5072696365206d7573742062652067726561746572207468616e207a65726f00600082015250565b6000611981601f836110cf565b915061198c8261194b565b602082019050919050565b600060208201905081810360008301526119b081611974565b9050919050565b60008190508160005260206000209050919050565b60006020601f8301049050919050565b600082821b905092915050565b600060088302611a197fffffffffffffffffffffffffffffffffffffffffffffffffffffffffffffffff826119dc565b611a2386836119dc565b95508019841693508086168417925050509392505050565b6000819050919050565b6000611a60611a5b611a5684611061565b611a3b565b611061565b9050919050565b6000819050919050565b611a7a83611a45565b611a8e611a8682611a67565b8484546119e9565b825550505050565b600090565b611aa3611a96565b611aae818484611a71565b505050565b5b81811015611ad257611ac7600082611a9b565b600181019050611ab4565b5050565b601f821115611b1757611ae8816119b7565b611af1846119cc565b81016020851015611b00578190505b611b14611b0c856119cc565b830182611ab3565b50505b505050565b600082821c905092915050565b6000611b3a60001984600802611b1c565b1980831691505092915050565b6000611b538383611b29565b9150826002028217905092915050565b611b6c826110c4565b67ffffffffffffffff811115611b8557611b84611266565b5b611b8f82546114f7565b611b9a828285611ad6565b600060209050601f831160018114611bcd5760008415611bbb578287015190505b611bc58582611b47565b865550611c2d565b601f198416611bdb866119b7565b60005b82811015611c0357848901518255600182019150602085019450602081019050611bde565b86831015611c205784890151611c1c601f891682611b29565b8355505b6001600288020188555050505b505050505050565b60006060820190508181036000830152611c4f818661111b565b9050611c5e6020830185611154565b611c6b6040830184611195565b949350505050565b7f4f6e6c79206f776e65722063616e207570646174652070726963650000000000600082015250565b6000611ca9601b836110cf565b9150611cb482611c73565b602082019050919050565b60006020820190508181036000830152611cd881611c9c565b9050919050565b7f5265656e7472616e637947756172643a207265656e7472616e742063616c6c00600082015250565b6000611d15601f836110cf565b9150611d2082611cdf565b602082019050919050565b60006020820190508181036000830152611d4481611d08565b905091905056fea2646970667358221220180b7e707921e338f6d068c09f99a7a39089b085ec788692fa08d6b365f1a80c64736f6c63430008130033",
  "immutableReferences": {},
  "source": "// SPDX-License-Identifier: MIT\r\npragma solidity ^0.8.19;\r\n\r\nimport \"@openzeppelin/contracts/security/ReentrancyGuard.sol\";\r\n\r\n/**\r\n * @title RealEstateMarketplace\r\n * @dev Implements a decentralized marketplace for real estate properties\r\n */\r\ncontract RealEstateMarketplace is ReentrancyGuard {\r\n    // Property struct to hold all property details\r\n    struct Property {\r\n        string location;\r\n        uint256 price;\r\n        address owner;\r\n        bool isForSale;\r\n    }\r\n\r\n    // Array to store all properties\r\n    Property[] public properties;\r\n    \r\n    // Mapping from property ID to owner\r\n    mapping(uint256 => address) public propertyOwner;\r\n\r\n    // Events\r\n    event PropertyListed(uint256 indexed propertyId, string location, uint256 price, address owner);\r\n    event PropertySold(uint256 indexed propertyId, address oldOwner, address newOwner, uint256 price);\r\n    event PropertyUpdated(uint256 indexed propertyId, uint256 newPrice, bool isForSale);\r\n\r\n    /**\r\n     * @dev List a new property for sale\r\n     * @param _location String description of property location\r\n     * @param _price Price in wei\r\n     */\r\n    function listProperty(string memory _location, uint256 _price) public {\r\n        require(bytes(_location).length > 0, \"Location cannot be empty\");\r\n        require(_price > 0, \"Price must be greater than zero\");\r\n        \r\n        // Create new property\r\n        Property memory newProperty = Property({\r\n            location: _location,\r\n            price: _price,\r\n            owner: msg.sender,\r\n            isForSale: true\r\n        });\r\n        \r\n        // Add property to array\r\n        properties.push(newProperty);\r\n        uint256 propertyId = properties.length - 1;\r\n        \r\n        // Set ownership\r\n        propertyOwner[propertyId] = msg.sender;\r\n        \r\n        // Emit event\r\n        emit PropertyListed(propertyId, _location, _price, msg.sender);\r\n    }\r\n\r\n    /**\r\n     * @dev Buy a property that is for sale\r\n     * @param _propertyId ID of the property to purchase\r\n     */\r\n    function buyProperty(uint256 _propertyId) public payable nonReentrant {\r\n        // Validate the property exists\r\n        require(_propertyId < properties.length, \"Property does not exist\");\r\n        \r\n        Property storage property = properties[_propertyId];\r\n        \r\n        // Validate the property is for sale\r\n        require(property.isForSale, \"Property is not for sale\");\r\n        \r\n        // Validate the buyer is not the current owner\r\n        require(property.owner != msg.sender, \"Cannot buy your own property\");\r\n        \r\n        // Validate the buyer sent enough ETH\r\n        require(msg.value >= property.price, \"Not enough ETH sent\");\r\n        \r\n        // Store previous owner for the event\r\n        address oldOwner = property.owner;\r\n        uint256 price = property.price;\r\n        \r\n        // Update ownership\r\n        property.owner = msg.sender;\r\n        property.isForSale = false;\r\n        propertyOwner[_propertyId] = msg.sender;\r\n        \r\n        // Transfer exact price to the seller\r\n        (bool sent, ) = payable(oldOwner).call{value: price}(\"\");\r\n        require(sent, \"Failed to send ETH to seller\");\r\n        \r\n        // Refund excess ETH if any\r\n        uint256 excess = msg.value - price;\r\n        if (excess > 0) {\r\n            (bool refundSent, ) = payable(msg.sender).call{value: excess}(\"\");\r\n            require(refundSent, \"Failed to refund excess ETH\");\r\n        }\r\n        \r\n        // Emit event\r\n        emit PropertySold(_propertyId, oldOwner, msg.sender, price);\r\n    }\r\n\r\n    /**\r\n     * @dev Get total number of properties\r\n     * @return Number of properties in the marketplace\r\n     */\r\n    function getPropertyCount() public view returns (uint256) {\r\n        return properties.length;\r\n    }\r\n    \r\n    /*\r\n     * @dev Get a specific property by ID\r\n     * @param _propertyId ID of the property to retrieve\r\n     * @return location, price, owner, isForSale\r\n     */\r\n    function getProperty(uint256 _propertyId) public view returns (\r\n        string memory location,\r\n        uint256 price,\r\n        address owner,\r\n        bool isForSale\r\n    ) {\r\n        require(_propertyId < properties.length, \"Property does not exist\");\r\n        Property memory property = properties[_propertyId];\r\n        \r\n        return (\r\n            property.location,\r\n            property.price,\r\n            property.owner,\r\n            property.isForSale\r\n        );\r\n    }\r\n    \r\n    /**\r\n     * @dev Check if sender is the owner of a property\r\n     * @param _propertyId ID of the property to check\r\n     * @return true if msg.sender is the owner\r\n     */\r\n    function isOwner(uint256 _propertyId) public view returns (bool) {\r\n        require(_propertyId < properties.length, \"Property does not exist\");\r\n        return propertyOwner[_propertyId] == msg.sender;\r\n    }\r\n    \r\n    /**\r\n     * @dev Allow owner to update property price\r\n     * @param _propertyId ID of the property to update\r\n     * @param _newPrice New price in wei\r\n     */\r\n    function updatePropertyPrice(uint256 _propertyId, uint256 _newPrice) public {\r\n        require(_propertyId < properties.length, \"Property does not exist\");\r\n        require(propertyOwner[_propertyId] == msg.sender, \"Only owner can update price\");\r\n        require(_newPrice > 0, \"Price must be greater than zero\");\r\n        \r\n        properties[_propertyId].price = _newPrice;\r\n        \r\n        // Emit event for price update\r\n        emit PropertyUpdated(_propertyId, _newPrice, properties[_propertyId].isForSale);\r\n    }\r\n    \r\n    /**\r\n     * @dev Allow owner to toggle property sale status\r\n     * @param _propertyId ID of the property to toggle status\r\n     */\r\n    function toggleForSale(uint256 _propertyId) public {\r\n        require(_propertyId < properties.length, \"Property does not exist\");\r\n        require(propertyOwner[_propertyId] == msg.sender, \"Only owner can change sale status\");\r\n        \r\n        properties[_propertyId].isForSale = !properties[_propertyId].isForSale;\r\n        \r\n        // Emit event for sale status update\r\n        emit PropertyUpdated(_propertyId, properties[_propertyId].price, properties[_propertyId].isForSale);\r\n    }\r\n}",
  "sourcePath": "/home/hruday/Desktop/cs218/real-estate-marketplace/contracts/RealEstateMarketplace.sol",
  "compiler": {
    "name": "solc",
    "version": "0.8.19+commit.7dd6d404.Emscripten.clang"
  },
  "schemaVersion": "3.4.16",
  "updatedAt": "2025-04-29T17:04:02.848Z",
  "networkType": "ethereum",
  "devdoc": {
    "details": "Implements a decentralized marketplace for real estate properties",
    "kind": "dev",
    "methods": {
      "buyProperty(uint256)": {
        "details": "Buy a property that is for sale",
        "params": {
          "_propertyId": "ID of the property to purchase"
        }
      },
      "getPropertyCount()": {
        "details": "Get total number of properties",
        "returns": {
          "_0": "Number of properties in the marketplace"
        }
      },
      "isOwner(uint256)": {
        "details": "Check if sender is the owner of a property",
        "params": {
          "_propertyId": "ID of the property to check"
        },
        "returns": {
          "_0": "true if msg.sender is the owner"
        }
      },
      "listProperty(string,uint256)": {
        "details": "List a new property for sale",
        "params": {
          "_location": "String description of property location",
          "_price": "Price in wei"
        }
      },
      "toggleForSale(uint256)": {
        "details": "Allow owner to toggle property sale status",
        "params": {
          "_propertyId": "ID of the property to toggle status"
        }
      },
      "updatePropertyPrice(uint256,uint256)": {
        "details": "Allow owner to update property price",
        "params": {
          "_newPrice": "New price in wei",
          "_propertyId": "ID of the property to update"
        }
      }
    },
    "title": "RealEstateMarketplace",
    "version": 1
  },
  "userdoc": {
    "kind": "user",
    "methods": {},
    "version": 1
  }
}