{
  "contractName": "RealEstateMarketplace",
  "abi": [
    {
      "anonymous": false,
      "inputs": [
        {
          "indexed": true,
          "internalType": "uint256",
          "name": "propertyId",
          "type": "uint256"
        },
        {
          "indexed": false,
          "internalType": "string",
          "name": "name",
          "type": "string"
        },
        {
          "indexed": false,
          "internalType": "string",
          "name": "location",
          "type": "string"
        },
        {
          "indexed": false,
          "internalType": "uint256",
          "name": "price",
          "type": "uint256"
        },
        {
          "indexed": false,
          "internalType": "address",
          "name": "owner",
          "type": "address"
        }
      ],
      "name": "PropertyListed",
      "type": "event"
    },
    {
      "anonymous": false,
      "inputs": [
        {
          "indexed": true,
          "internalType": "uint256",
          "name": "propertyId",
          "type": "uint256"
        },
        {
          "indexed": false,
          "internalType": "address",
          "name": "oldOwner",
          "type": "address"
        },
        {
          "indexed": false,
          "internalType": "address",
          "name": "newOwner",
          "type": "address"
        },
        {
          "indexed": false,
          "internalType": "uint256",
          "name": "price",
          "type": "uint256"
        }
      ],
      "name": "PropertySold",
      "type": "event"
    },
    {
      "anonymous": false,
      "inputs": [
        {
          "indexed": true,
          "internalType": "uint256",
          "name": "propertyId",
          "type": "uint256"
        },
        {
          "indexed": false,
          "internalType": "uint256",
          "name": "newPrice",
          "type": "uint256"
        },
        {
          "indexed": false,
          "internalType": "bool",
          "name": "isForSale",
          "type": "bool"
        }
      ],
      "name": "PropertyUpdated",
      "type": "event"
    },
    {
      "inputs": [
        {
          "internalType": "uint256",
          "name": "",
          "type": "uint256"
        }
      ],
      "name": "properties",
      "outputs": [
        {
          "internalType": "string",
          "name": "name",
          "type": "string"
        },
        {
          "internalType": "string",
          "name": "location",
          "type": "string"
        },
        {
          "internalType": "string",
          "name": "description",
          "type": "string"
        },
        {
          "internalType": "string",
          "name": "imageUrl",
          "type": "string"
        },
        {
          "internalType": "uint256",
          "name": "price",
          "type": "uint256"
        },
        {
          "internalType": "uint256",
          "name": "size",
          "type": "uint256"
        },
        {
          "internalType": "uint8",
          "name": "bedrooms",
          "type": "uint8"
        },
        {
          "internalType": "uint8",
          "name": "bathrooms",
          "type": "uint8"
        },
        {
          "internalType": "address",
          "name": "owner",
          "type": "address"
        },
        {
          "internalType": "bool",
          "name": "isForSale",
          "type": "bool"
        }
      ],
      "stateMutability": "view",
      "type": "function",
      "constant": true
    },
    {
      "inputs": [
        {
          "internalType": "uint256",
          "name": "",
          "type": "uint256"
        }
      ],
      "name": "propertyOwner",
      "outputs": [
        {
          "internalType": "address",
          "name": "",
          "type": "address"
        }
      ],
      "stateMutability": "view",
      "type": "function",
      "constant": true
    },
    {
      "inputs": [
        {
          "internalType": "string",
          "name": "_name",
          "type": "string"
        },
        {
          "internalType": "string",
          "name": "_location",
          "type": "string"
        },
        {
          "internalType": "string",
          "name": "_description",
          "type": "string"
        },
        {
          "internalType": "string",
          "name": "_imageUrl",
          "type": "string"
        },
        {
          "internalType": "uint256",
          "name": "_price",
          "type": "uint256"
        },
        {
          "internalType": "uint256",
          "name": "_size",
          "type": "uint256"
        },
        {
          "internalType": "uint8",
          "name": "_bedrooms",
          "type": "uint8"
        },
        {
          "internalType": "uint8",
          "name": "_bathrooms",
          "type": "uint8"
        }
      ],
      "name": "listProperty",
      "outputs": [],
      "stateMutability": "nonpayable",
      "type": "function"
    },
    {
      "inputs": [
        {
          "internalType": "uint256",
          "name": "_propertyId",
          "type": "uint256"
        }
      ],
      "name": "buyProperty",
      "outputs": [],
      "stateMutability": "payable",
      "type": "function",
      "payable": true
    },
    {
      "inputs": [],
      "name": "getPropertyCount",
      "outputs": [
        {
          "internalType": "uint256",
          "name": "",
          "type": "uint256"
        }
      ],
      "stateMutability": "view",
      "type": "function",
      "constant": true
    },
    {
      "inputs": [
        {
          "internalType": "uint256",
          "name": "_propertyId",
          "type": "uint256"
        }
      ],
      "name": "getProperty",
      "outputs": [
        {
          "internalType": "string",
          "name": "name",
          "type": "string"
        },
        {
          "internalType": "string",
          "name": "location",
          "type": "string"
        },
        {
          "internalType": "string",
          "name": "description",
          "type": "string"
        },
        {
          "internalType": "string",
          "name": "imageUrl",
          "type": "string"
        },
        {
          "internalType": "uint256",
          "name": "price",
          "type": "uint256"
        },
        {
          "internalType": "uint256",
          "name": "size",
          "type": "uint256"
        },
        {
          "internalType": "uint8",
          "name": "bedrooms",
          "type": "uint8"
        },
        {
          "internalType": "uint8",
          "name": "bathrooms",
          "type": "uint8"
        },
        {
          "internalType": "address",
          "name": "owner",
          "type": "address"
        },
        {
          "internalType": "bool",
          "name": "isForSale",
          "type": "bool"
        }
      ],
      "stateMutability": "view",
      "type": "function",
      "constant": true
    },
    {
      "inputs": [
        {
          "internalType": "uint256",
          "name": "_propertyId",
          "type": "uint256"
        }
      ],
      "name": "isOwner",
      "outputs": [
        {
          "internalType": "bool",
          "name": "",
          "type": "bool"
        }
      ],
      "stateMutability": "view",
      "type": "function",
      "constant": true
    },
    {
      "inputs": [
        {
          "internalType": "uint256",
          "name": "_propertyId",
          "type": "uint256"
        },
        {
          "internalType": "uint256",
          "name": "_newPrice",
          "type": "uint256"
        }
      ],
      "name": "updatePropertyPrice",
      "outputs": [],
      "stateMutability": "nonpayable",
      "type": "function"
    },
    {
      "inputs": [
        {
          "internalType": "uint256",
          "name": "_propertyId",
          "type": "uint256"
        }
      ],
      "name": "toggleForSale",
      "outputs": [],
      "stateMutability": "nonpayable",
      "type": "function"
    },
    {
      "inputs": [
        {
          "internalType": "uint256",
          "name": "_propertyId",
          "type": "uint256"
        },
        {
          "internalType": "string",
          "name": "_newImageUrl",
          "type": "string"
        }
      ],
      "name": "updateImageUrl",
      "outputs": [],
      "stateMutability": "nonpayable",
      "type": "function"
    },
    {
      "inputs": [
        {
          "internalType": "uint256",
          "name": "_propertyId",
          "type": "uint256"
        },
        {
          "internalType": "uint256",
          "name": "_price",
          "type": "uint256"
        },
        {
          "internalType": "string",
          "name": "_description",
          "type": "string"
        },
        {
          "internalType": "string",
          "name": "_imageUrl",
          "type": "string"
        }
      ],
      "name": "updatePropertyDetails",
      "outputs": [],
      "stateMutability": "nonpayable",
      "type": "function"
    }
  ],
  "bytecode": "0x608060405234801561001057600080fd5b506001600081905550612d1c806100286000396000f3fe60806040526004361061009c5760003560e01c80637f5fa461116100645780637f5fa461146101945780639928e8bb146101bd578063a32018b9146101e6578063d1fedbc21461020f578063f7b108081461024c578063fce401b2146102925761009c565b80631f95e91e146100a157806332665ffb146100ca57806339c7639c146101105780636fa830a61461014d5780637326b90114610169575b600080fd5b3480156100ad57600080fd5b506100c860048036038101906100c39190611c2f565b6102bb565b005b3480156100d657600080fd5b506100f160048036038101906100ec9190611d55565b6106b4565b6040516101079a99989796959493929190611e7b565b60405180910390f35b34801561011c57600080fd5b5061013760048036038101906101329190611d55565b610a99565b6040516101449190611f33565b60405180910390f35b61016760048036038101906101629190611d55565b610b4b565b005b34801561017557600080fd5b5061017e610f8d565b60405161018b9190611f4e565b60405180910390f35b3480156101a057600080fd5b506101bb60048036038101906101b69190611f69565b610f9a565b005b3480156101c957600080fd5b506101e460048036038101906101df9190611fc5565b61118e565b005b3480156101f257600080fd5b5061020d60048036038101906102089190611d55565b61135e565b005b34801561021b57600080fd5b5061023660048036038101906102319190611d55565b61154a565b6040516102439190612064565b60405180910390f35b34801561025857600080fd5b50610273600480360381019061026e9190611d55565b61157d565b6040516102899a99989796959493929190611e7b565b60405180910390f35b34801561029e57600080fd5b506102b960048036038101906102b4919061207f565b611848565b005b60008851116102ff576040517f08c379a00000000000000000000000000000000000000000000000000000000081526004016102f69061210b565b60405180910390fd5b6000875111610343576040517f08c379a000000000000000000000000000000000000000000000000000000000815260040161033a90612177565b60405180910390fd5b60008411610386576040517f08c379a000000000000000000000000000000000000000000000000000000000815260040161037d906121e3565b60405180910390fd5b600083116103c9576040517f08c379a00000000000000000000000000000000000000000000000000000000081526004016103c09061224f565b60405180910390fd5b60008260ff161161040f576040517f08c379a0000000000000000000000000000000000000000000000000000000008152600401610406906122bb565b60405180910390fd5b60008160ff1611610455576040517f08c379a000000000000000000000000000000000000000000000000000000000815260040161044c90612327565b60405180910390fd5b60006040518061014001604052808a81526020018981526020018881526020018781526020018681526020018581526020018460ff1681526020018360ff1681526020013373ffffffffffffffffffffffffffffffffffffffff168152602001600115158152509050600181908060018154018082558091505060019003906000526020600020906007020160009091909190915060008201518160000190816104ff9190612553565b5060208201518160010190816105159190612553565b50604082015181600201908161052b9190612553565b5060608201518160030190816105419190612553565b506080820151816004015560a0820151816005015560c08201518160060160006101000a81548160ff021916908360ff16021790555060e08201518160060160016101000a81548160ff021916908360ff1602179055506101008201518160060160026101000a81548173ffffffffffffffffffffffffffffffffffffffff021916908373ffffffffffffffffffffffffffffffffffffffff1602179055506101208201518160060160166101000a81548160ff02191690831515021790555050506000600180805490506106169190612654565b9050336002600083815260200190815260200160002060006101000a81548173ffffffffffffffffffffffffffffffffffffffff021916908373ffffffffffffffffffffffffffffffffffffffff160217905550807f1373b7f595fc8d80532baebb18d7e552dc0ff57663244e09d173b4d181f3ee588b8b89336040516106a09493929190612688565b60405180910390a250505050505050505050565b6060806060806000806000806000806001805490508b1061070a576040517f08c379a000000000000000000000000000000000000000000000000000000000815260040161070190612727565b60405180910390fd5b600060018c815481106107205761071f612747565b5b90600052602060002090600702016040518061014001604052908160008201805461074a90612376565b80601f016020809104026020016040519081016040528092919081815260200182805461077690612376565b80156107c35780601f10610798576101008083540402835291602001916107c3565b820191906000526020600020905b8154815290600101906020018083116107a657829003601f168201915b505050505081526020016001820180546107dc90612376565b80601f016020809104026020016040519081016040528092919081815260200182805461080890612376565b80156108555780601f1061082a57610100808354040283529160200191610855565b820191906000526020600020905b81548152906001019060200180831161083857829003601f168201915b5050505050815260200160028201805461086e90612376565b80601f016020809104026020016040519081016040528092919081815260200182805461089a90612376565b80156108e75780601f106108bc576101008083540402835291602001916108e7565b820191906000526020600020905b8154815290600101906020018083116108ca57829003601f168201915b5050505050815260200160038201805461090090612376565b80601f016020809104026020016040519081016040528092919081815260200182805461092c90612376565b80156109795780601f1061094e57610100808354040283529160200191610979565b820191906000526020600020905b81548152906001019060200180831161095c57829003601f168201915b5050505050815260200160048201548152602001600582015481526020016006820160009054906101000a900460ff1660ff1660ff1681526020016006820160019054906101000a900460ff1660ff1660ff1681526020016006820160029054906101000a900473ffffffffffffffffffffffffffffffffffffffff1673ffffffffffffffffffffffffffffffffffffffff1673ffffffffffffffffffffffffffffffffffffffff1681526020016006820160169054906101000a900460ff1615151515815250509050806000015181602001518260400151836060015184608001518560a001518660c001518760e001518861010001518961012001519a509a509a509a509a509a509a509a509a509a50509193959799509193959799565b60006001805490508210610ae2576040517f08c379a0000000000000000000000000000000000000000000000000000000008152600401610ad990612727565b60405180910390fd5b3373ffffffffffffffffffffffffffffffffffffffff166002600084815260200190815260200160002060009054906101000a900473ffffffffffffffffffffffffffffffffffffffff1673ffffffffffffffffffffffffffffffffffffffff16149050919050565b610b53611a0d565b6001805490508110610b9a576040517f08c379a0000000000000000000000000000000000000000000000000000000008152600401610b9190612727565b60405180910390fd5b600060018281548110610bb057610baf612747565b5b906000526020600020906007020190508060060160169054906101000a900460ff16610c11576040517f08c379a0000000000000000000000000000000000000000000000000000000008152600401610c08906127c2565b60405180910390fd5b3373ffffffffffffffffffffffffffffffffffffffff168160060160029054906101000a900473ffffffffffffffffffffffffffffffffffffffff1673ffffffffffffffffffffffffffffffffffffffff1603610ca3576040517f08c379a0000000000000000000000000000000000000000000000000000000008152600401610c9a9061282e565b60405180910390fd5b8060040154341015610cea576040517f08c379a0000000000000000000000000000000000000000000000000000000008152600401610ce19061289a565b60405180910390fd5b60008160060160029054906101000a900473ffffffffffffffffffffffffffffffffffffffff169050600082600401549050338360060160026101000a81548173ffffffffffffffffffffffffffffffffffffffff021916908373ffffffffffffffffffffffffffffffffffffffff16021790555060008360060160166101000a81548160ff021916908315150217905550336002600086815260200190815260200160002060006101000a81548173ffffffffffffffffffffffffffffffffffffffff021916908373ffffffffffffffffffffffffffffffffffffffff16021790555060008273ffffffffffffffffffffffffffffffffffffffff1682604051610df4906128eb565b60006040518083038185875af1925050503d8060008114610e31576040519150601f19603f3d011682016040523d82523d6000602084013e610e36565b606091505b5050905080610e7a576040517f08c379a0000000000000000000000000000000000000000000000000000000008152600401610e719061294c565b60405180910390fd5b60008234610e889190612654565b90506000811115610f415760003373ffffffffffffffffffffffffffffffffffffffff1682604051610eb9906128eb565b60006040518083038185875af1925050503d8060008114610ef6576040519150601f19603f3d011682016040523d82523d6000602084013e610efb565b606091505b5050905080610f3f576040517f08c379a0000000000000000000000000000000000000000000000000000000008152600401610f36906129b8565b60405180910390fd5b505b857fddd64180d9701c7ede08673ac8106484ff983a472929330d4fbde4e35d65cb06853386604051610f75939291906129d8565b60405180910390a25050505050610f8a611a5c565b50565b6000600180549050905090565b6001805490508210610fe1576040517f08c379a0000000000000000000000000000000000000000000000000000000008152600401610fd890612727565b60405180910390fd5b3373ffffffffffffffffffffffffffffffffffffffff166002600084815260200190815260200160002060009054906101000a900473ffffffffffffffffffffffffffffffffffffffff1673ffffffffffffffffffffffffffffffffffffffff1614611082576040517f08c379a000000000000000000000000000000000000000000000000000000000815260040161107990612a5b565b60405180910390fd5b60008151116110c6576040517f08c379a00000000000000000000000000000000000000000000000000000000081526004016110bd90612ac7565b60405180910390fd5b80600183815481106110db576110da612747565b5b906000526020600020906007020160030190816110f89190612553565b50817f0ebe5c59e5dc700dcb789c33b0e9bd5e015ef98b751dfa5b083e9d4c520b89e46001848154811061112f5761112e612747565b5b9060005260206000209060070201600401546001858154811061115557611154612747565b5b906000526020600020906007020160060160169054906101000a900460ff16604051611182929190612ae7565b60405180910390a25050565b60018054905084106111d5576040517f08c379a00000000000000000000000000000000000000000000000000000000081526004016111cc90612727565b60405180910390fd5b3373ffffffffffffffffffffffffffffffffffffffff166002600086815260200190815260200160002060009054906101000a900473ffffffffffffffffffffffffffffffffffffffff1673ffffffffffffffffffffffffffffffffffffffff1614611276576040517f08c379a000000000000000000000000000000000000000000000000000000000815260040161126d90612b5c565b60405180910390fd5b600083116112b9576040517f08c379a00000000000000000000000000000000000000000000000000000000081526004016112b0906121e3565b60405180910390fd5b6000600185815481106112cf576112ce612747565b5b90600052602060002090600702019050838160040181905550828160020190816112f99190612553565b508181600301908161130b9190612553565b50847f0ebe5c59e5dc700dcb789c33b0e9bd5e015ef98b751dfa5b083e9d4c520b89e4858360060160169054906101000a900460ff1660405161134f929190612ae7565b60405180910390a25050505050565b60018054905081106113a5576040517f08c379a000000000000000000000000000000000000000000000000000000000815260040161139c90612727565b60405180910390fd5b3373ffffffffffffffffffffffffffffffffffffffff166002600083815260200190815260200160002060009054906101000a900473ffffffffffffffffffffffffffffffffffffffff1673ffffffffffffffffffffffffffffffffffffffff1614611446576040517f08c379a000000000000000000000000000000000000000000000000000000000815260040161143d90612bee565b60405180910390fd5b6001818154811061145a57611459612747565b5b906000526020600020906007020160060160169054906101000a900460ff16156001828154811061148e5761148d612747565b5b906000526020600020906007020160060160166101000a81548160ff021916908315150217905550807f0ebe5c59e5dc700dcb789c33b0e9bd5e015ef98b751dfa5b083e9d4c520b89e4600183815481106114ec576114eb612747565b5b9060005260206000209060070201600401546001848154811061151257611511612747565b5b906000526020600020906007020160060160169054906101000a900460ff1660405161153f929190612ae7565b60405180910390a250565b60026020528060005260406000206000915054906101000a900473ffffffffffffffffffffffffffffffffffffffff1681565b6001818154811061158d57600080fd5b90600052602060002090600702016000915090508060000180546115b090612376565b80601f01602080910402602001604051908101604052809291908181526020018280546115dc90612376565b80156116295780601f106115fe57610100808354040283529160200191611629565b820191906000526020600020905b81548152906001019060200180831161160c57829003601f168201915b50505050509080600101805461163e90612376565b80601f016020809104026020016040519081016040528092919081815260200182805461166a90612376565b80156116b75780601f1061168c576101008083540402835291602001916116b7565b820191906000526020600020905b81548152906001019060200180831161169a57829003601f168201915b5050505050908060020180546116cc90612376565b80601f01602080910402602001604051908101604052809291908181526020018280546116f890612376565b80156117455780601f1061171a57610100808354040283529160200191611745565b820191906000526020600020905b81548152906001019060200180831161172857829003601f168201915b50505050509080600301805461175a90612376565b80601f016020809104026020016040519081016040528092919081815260200182805461178690612376565b80156117d35780601f106117a8576101008083540402835291602001916117d3565b820191906000526020600020905b8154815290600101906020018083116117b657829003601f168201915b5050505050908060040154908060050154908060060160009054906101000a900460ff16908060060160019054906101000a900460ff16908060060160029054906101000a900473ffffffffffffffffffffffffffffffffffffffff16908060060160169054906101000a900460ff1690508a565b600180549050821061188f576040517f08c379a000000000000000000000000000000000000000000000000000000000815260040161188690612727565b60405180910390fd5b3373ffffffffffffffffffffffffffffffffffffffff166002600084815260200190815260200160002060009054906101000a900473ffffffffffffffffffffffffffffffffffffffff1673ffffffffffffffffffffffffffffffffffffffff1614611930576040517f08c379a000000000000000000000000000000000000000000000000000000000815260040161192790612c5a565b60405180910390fd5b60008111611973576040517f08c379a000000000000000000000000000000000000000000000000000000000815260040161196a906121e3565b60405180910390fd5b806001838154811061198857611987612747565b5b906000526020600020906007020160040181905550817f0ebe5c59e5dc700dcb789c33b0e9bd5e015ef98b751dfa5b083e9d4c520b89e482600185815481106119d4576119d3612747565b5b906000526020600020906007020160060160169054906101000a900460ff16604051611a01929190612ae7565b60405180910390a25050565b600260005403611a52576040517f08c379a0000000000000000000000000000000000000000000000000000000008152600401611a4990612cc6565b60405180910390fd5b6002600081905550565b6001600081905550565b6000604051905090565b600080fd5b600080fd5b600080fd5b600080fd5b6000601f19601f8301169050919050565b7f4e487b7100000000000000000000000000000000000000000000000000000000600052604160045260246000fd5b611acd82611a84565b810181811067ffffffffffffffff82111715611aec57611aeb611a95565b5b80604052505050565b6000611aff611a66565b9050611b0b8282611ac4565b919050565b600067ffffffffffffffff821115611b2b57611b2a611a95565b5b611b3482611a84565b9050602081019050919050565b82818337600083830152505050565b6000611b63611b5e84611b10565b611af5565b905082815260208101848484011115611b7f57611b7e611a7f565b5b611b8a848285611b41565b509392505050565b600082601f830112611ba757611ba6611a7a565b5b8135611bb7848260208601611b50565b91505092915050565b6000819050919050565b611bd381611bc0565b8114611bde57600080fd5b50565b600081359050611bf081611bca565b92915050565b600060ff82169050919050565b611c0c81611bf6565b8114611c1757600080fd5b50565b600081359050611c2981611c03565b92915050565b600080600080600080600080610100898b031215611c5057611c4f611a70565b5b600089013567ffffffffffffffff811115611c6e57611c6d611a75565b5b611c7a8b828c01611b92565b985050602089013567ffffffffffffffff811115611c9b57611c9a611a75565b5b611ca78b828c01611b92565b975050604089013567ffffffffffffffff811115611cc857611cc7611a75565b5b611cd48b828c01611b92565b965050606089013567ffffffffffffffff811115611cf557611cf4611a75565b5b611d018b828c01611b92565b9550506080611d128b828c01611be1565b94505060a0611d238b828c01611be1565b93505060c0611d348b828c01611c1a565b92505060e0611d458b828c01611c1a565b9150509295985092959890939650565b600060208284031215611d6b57611d6a611a70565b5b6000611d7984828501611be1565b91505092915050565b600081519050919050565b600082825260208201905092915050565b60005b83811015611dbc578082015181840152602081019050611da1565b60008484015250505050565b6000611dd382611d82565b611ddd8185611d8d565b9350611ded818560208601611d9e565b611df681611a84565b840191505092915050565b611e0a81611bc0565b82525050565b611e1981611bf6565b82525050565b600073ffffffffffffffffffffffffffffffffffffffff82169050919050565b6000611e4a82611e1f565b9050919050565b611e5a81611e3f565b82525050565b60008115159050919050565b611e7581611e60565b82525050565b6000610140820190508181036000830152611e96818d611dc8565b90508181036020830152611eaa818c611dc8565b90508181036040830152611ebe818b611dc8565b90508181036060830152611ed2818a611dc8565b9050611ee16080830189611e01565b611eee60a0830188611e01565b611efb60c0830187611e10565b611f0860e0830186611e10565b611f16610100830185611e51565b611f24610120830184611e6c565b9b9a5050505050505050505050565b6000602082019050611f486000830184611e6c565b92915050565b6000602082019050611f636000830184611e01565b92915050565b60008060408385031215611f8057611f7f611a70565b5b6000611f8e85828601611be1565b925050602083013567ffffffffffffffff811115611faf57611fae611a75565b5b611fbb85828601611b92565b9150509250929050565b60008060008060808587031215611fdf57611fde611a70565b5b6000611fed87828801611be1565b9450506020611ffe87828801611be1565b935050604085013567ffffffffffffffff81111561201f5761201e611a75565b5b61202b87828801611b92565b925050606085013567ffffffffffffffff81111561204c5761204b611a75565b5b61205887828801611b92565b91505092959194509250565b60006020820190506120796000830184611e51565b92915050565b6000806040838503121561209657612095611a70565b5b60006120a485828601611be1565b92505060206120b585828601611be1565b9150509250929050565b7f4e616d652063616e6e6f7420626520656d707479000000000000000000000000600082015250565b60006120f5601483611d8d565b9150612100826120bf565b602082019050919050565b60006020820190508181036000830152612124816120e8565b9050919050565b7f4c6f636174696f6e2063616e6e6f7420626520656d7074790000000000000000600082015250565b6000612161601883611d8d565b915061216c8261212b565b602082019050919050565b6000602082019050818103600083015261219081612154565b9050919050565b7f5072696365206d7573742062652067726561746572207468616e207a65726f00600082015250565b60006121cd601f83611d8d565b91506121d882612197565b602082019050919050565b600060208201905081810360008301526121fc816121c0565b9050919050565b7f53697a65206d7573742062652067726561746572207468616e207a65726f0000600082015250565b6000612239601e83611d8d565b915061224482612203565b602082019050919050565b600060208201905081810360008301526122688161222c565b9050919050565b7f4d7573742068617665206174206c65617374206f6e6520626564726f6f6d0000600082015250565b60006122a5601e83611d8d565b91506122b08261226f565b602082019050919050565b600060208201905081810360008301526122d481612298565b9050919050565b7f4d7573742068617665206174206c65617374206f6e652062617468726f6f6d00600082015250565b6000612311601f83611d8d565b915061231c826122db565b602082019050919050565b6000602082019050818103600083015261234081612304565b9050919050565b7f4e487b7100000000000000000000000000000000000000000000000000000000600052602260045260246000fd5b6000600282049050600182168061238e57607f821691505b6020821081036123a1576123a0612347565b5b50919050565b60008190508160005260206000209050919050565b60006020601f8301049050919050565b600082821b905092915050565b6000600883026124097fffffffffffffffffffffffffffffffffffffffffffffffffffffffffffffffff826123cc565b61241386836123cc565b95508019841693508086168417925050509392505050565b6000819050919050565b600061245061244b61244684611bc0565b61242b565b611bc0565b9050919050565b6000819050919050565b61246a83612435565b61247e61247682612457565b8484546123d9565b825550505050565b600090565b612493612486565b61249e818484612461565b505050565b5b818110156124c2576124b760008261248b565b6001810190506124a4565b5050565b601f821115612507576124d8816123a7565b6124e1846123bc565b810160208510156124f0578190505b6125046124fc856123bc565b8301826124a3565b50505b505050565b600082821c905092915050565b600061252a6000198460080261250c565b1980831691505092915050565b60006125438383612519565b9150826002028217905092915050565b61255c82611d82565b67ffffffffffffffff81111561257557612574611a95565b5b61257f8254612376565b61258a8282856124c6565b600060209050601f8311600181146125bd57600084156125ab578287015190505b6125b58582612537565b86555061261d565b601f1984166125cb866123a7565b60005b828110156125f3578489015182556001820191506020850194506020810190506125ce565b86831015612610578489015161260c601f891682612519565b8355505b6001600288020188555050505b505050505050565b7f4e487b7100000000000000000000000000000000000000000000000000000000600052601160045260246000fd5b600061265f82611bc0565b915061266a83611bc0565b925082820390508181111561268257612681612625565b5b92915050565b600060808201905081810360008301526126a28187611dc8565b905081810360208301526126b68186611dc8565b90506126c56040830185611e01565b6126d26060830184611e51565b95945050505050565b7f50726f706572747920646f6573206e6f74206578697374000000000000000000600082015250565b6000612711601783611d8d565b915061271c826126db565b602082019050919050565b6000602082019050818103600083015261274081612704565b9050919050565b7f4e487b7100000000000000000000000000000000000000000000000000000000600052603260045260246000fd5b7f50726f7065727479206973206e6f7420666f722073616c650000000000000000600082015250565b60006127ac601883611d8d565b91506127b782612776565b602082019050919050565b600060208201905081810360008301526127db8161279f565b9050919050565b7f43616e6e6f742062757920796f7572206f776e2070726f706572747900000000600082015250565b6000612818601c83611d8d565b9150612823826127e2565b602082019050919050565b600060208201905081810360008301526128478161280b565b9050919050565b7f4e6f7420656e6f756768204554482073656e7400000000000000000000000000600082015250565b6000612884601383611d8d565b915061288f8261284e565b602082019050919050565b600060208201905081810360008301526128b381612877565b9050919050565b600081905092915050565b50565b60006128d56000836128ba565b91506128e0826128c5565b600082019050919050565b60006128f6826128c8565b9150819050919050565b7f4661696c656420746f2073656e642045544820746f2073656c6c657200000000600082015250565b6000612936601c83611d8d565b915061294182612900565b602082019050919050565b6000602082019050818103600083015261296581612929565b9050919050565b7f4661696c656420746f20726566756e6420657863657373204554480000000000600082015250565b60006129a2601b83611d8d565b91506129ad8261296c565b602082019050919050565b600060208201905081810360008301526129d181612995565b9050919050565b60006060820190506129ed6000830186611e51565b6129fa6020830185611e51565b612a076040830184611e01565b949350505050565b7f4f6e6c79206f776e65722063616e2075706461746520696d6167650000000000600082015250565b6000612a45601b83611d8d565b9150612a5082612a0f565b602082019050919050565b60006020820190508181036000830152612a7481612a38565b9050919050565b7f496d6167652055524c2063616e6e6f7420626520656d70747900000000000000600082015250565b6000612ab1601983611d8d565b9150612abc82612a7b565b602082019050919050565b60006020820190508181036000830152612ae081612aa4565b9050919050565b6000604082019050612afc6000830185611e01565b612b096020830184611e6c565b9392505050565b7f4f6e6c79206f776e65722063616e207570646174652064657461696c73000000600082015250565b6000612b46601d83611d8d565b9150612b5182612b10565b602082019050919050565b60006020820190508181036000830152612b7581612b39565b9050919050565b7f4f6e6c79206f776e65722063616e206368616e67652073616c6520737461747560008201527f7300000000000000000000000000000000000000000000000000000000000000602082015250565b6000612bd8602183611d8d565b9150612be382612b7c565b604082019050919050565b60006020820190508181036000830152612c0781612bcb565b9050919050565b7f4f6e6c79206f776e65722063616e207570646174652070726963650000000000600082015250565b6000612c44601b83611d8d565b9150612c4f82612c0e565b602082019050919050565b60006020820190508181036000830152612c7381612c37565b9050919050565b7f5265656e7472616e637947756172643a207265656e7472616e742063616c6c00600082015250565b6000612cb0601f83611d8d565b9150612cbb82612c7a565b602082019050919050565b60006020820190508181036000830152612cdf81612ca3565b905091905056fea2646970667358221220dea09157d2c68f08717e10598e8addf6eec122db458d55eb6996cb87c7d4d06264736f6c63430008130033",
  "immutableReferences": {},
  "source": "// SPDX-License-Identifier: MIT\r\npragma solidity ^0.8.19;\r\n\r\nimport \"@openzeppelin/contracts/security/ReentrancyGuard.sol\";\r\n\r\n/**\r\n * @title RealEstateMarketplace\r\n * @dev Implements a decentralized marketplace for real estate properties\r\n */\r\ncontract RealEstateMarketplace is ReentrancyGuard {\r\n    // Property struct to hold all property details\r\n    struct Property {\r\n        string name;           // Property name\r\n        string location;       // Property location\r\n        string description;    // Property description\r\n        string imageUrl;       // IPFS hash or URL of the property image\r\n        uint256 price;        // Price in wei\r\n        uint256 size;         // Size in square feet\r\n        uint8 bedrooms;       // Number of bedrooms\r\n        uint8 bathrooms;      // Number of bathrooms\r\n        address owner;        // Current owner\r\n        bool isForSale;       // Whether the property is for sale\r\n    }\r\n\r\n    // Array to store all properties\r\n    Property[] public properties;\r\n    \r\n    // Mapping from property ID to owner\r\n    mapping(uint256 => address) public propertyOwner;\r\n\r\n    // Events\r\n    event PropertyListed(\r\n        uint256 indexed propertyId,\r\n        string name,\r\n        string location,\r\n        uint256 price,\r\n        address owner\r\n    );\r\n    \r\n    event PropertySold(\r\n        uint256 indexed propertyId,\r\n        address oldOwner,\r\n        address newOwner,\r\n        uint256 price\r\n    );\r\n    \r\n    event PropertyUpdated(\r\n        uint256 indexed propertyId,\r\n        uint256 newPrice,\r\n        bool isForSale\r\n    );\r\n\r\n    /**\r\n     * @dev List a new property for sale\r\n     * @param _name Name of the property\r\n     * @param _location Location of the property\r\n     * @param _description Description of the property\r\n     * @param _imageUrl IPFS hash or URL of the property image\r\n     * @param _price Price in wei\r\n     * @param _size Size in square feet\r\n     * @param _bedrooms Number of bedrooms\r\n     * @param _bathrooms Number of bathrooms\r\n     */\r\n    function listProperty(\r\n        string memory _name,\r\n        string memory _location,\r\n        string memory _description,\r\n        string memory _imageUrl,\r\n        uint256 _price,\r\n        uint256 _size,\r\n        uint8 _bedrooms,\r\n        uint8 _bathrooms\r\n    ) public {\r\n        require(bytes(_name).length > 0, \"Name cannot be empty\");\r\n        require(bytes(_location).length > 0, \"Location cannot be empty\");\r\n        require(_price > 0, \"Price must be greater than zero\");\r\n        require(_size > 0, \"Size must be greater than zero\");\r\n        require(_bedrooms > 0, \"Must have at least one bedroom\");\r\n        require(_bathrooms > 0, \"Must have at least one bathroom\");\r\n        \r\n        // Create new property\r\n        Property memory newProperty = Property({\r\n            name: _name,\r\n            location: _location,\r\n            description: _description,\r\n            imageUrl: _imageUrl,\r\n            price: _price,\r\n            size: _size,\r\n            bedrooms: _bedrooms,\r\n            bathrooms: _bathrooms,\r\n            owner: msg.sender,\r\n            isForSale: true\r\n        });\r\n        \r\n        // Add property to array\r\n        properties.push(newProperty);\r\n        uint256 propertyId = properties.length - 1;\r\n        \r\n        // Set ownership\r\n        propertyOwner[propertyId] = msg.sender;\r\n        \r\n        // Emit event\r\n        emit PropertyListed(propertyId, _name, _location, _price, msg.sender);\r\n    }\r\n\r\n    /**\r\n     * @dev Buy a property that is for sale\r\n     * @param _propertyId ID of the property to purchase\r\n     */\r\n    function buyProperty(uint256 _propertyId) public payable nonReentrant {\r\n        // Validate the property exists\r\n        require(_propertyId < properties.length, \"Property does not exist\");\r\n        \r\n        Property storage property = properties[_propertyId];\r\n        \r\n        // Validate the property is for sale\r\n        require(property.isForSale, \"Property is not for sale\");\r\n        \r\n        // Validate the buyer is not the current owner\r\n        require(property.owner != msg.sender, \"Cannot buy your own property\");\r\n        \r\n        // Validate the buyer sent enough ETH\r\n        require(msg.value >= property.price, \"Not enough ETH sent\");\r\n        \r\n        // Store previous owner for the event\r\n        address oldOwner = property.owner;\r\n        uint256 price = property.price;\r\n        \r\n        // Update ownership\r\n        property.owner = msg.sender;\r\n        property.isForSale = false;\r\n        propertyOwner[_propertyId] = msg.sender;\r\n        \r\n        // Transfer exact price to the seller\r\n        (bool sent, ) = payable(oldOwner).call{value: price}(\"\");\r\n        require(sent, \"Failed to send ETH to seller\");\r\n        \r\n        // Refund excess ETH if any\r\n        uint256 excess = msg.value - price;\r\n        if (excess > 0) {\r\n            (bool refundSent, ) = payable(msg.sender).call{value: excess}(\"\");\r\n            require(refundSent, \"Failed to refund excess ETH\");\r\n        }\r\n        \r\n        // Emit event\r\n        emit PropertySold(_propertyId, oldOwner, msg.sender, price);\r\n    }\r\n\r\n    /**\r\n     * @dev Get total number of properties\r\n     * @return Number of properties in the marketplace\r\n     */\r\n    function getPropertyCount() public view returns (uint256) {\r\n        return properties.length;\r\n    }\r\n    \r\n    /**\r\n     * @dev Get a specific property by ID\r\n     * @param _propertyId ID of the property to retrieve\r\n     * @return name The name of the property\r\n     * @return location The location of the property\r\n     * @return description The description of the property\r\n     * @return imageUrl The URL or IPFS hash of the property image\r\n     * @return price The price of the property in wei\r\n     * @return size The size of the property in square feet\r\n     * @return bedrooms The number of bedrooms\r\n     * @return bathrooms The number of bathrooms\r\n     * @return owner The address of the property owner\r\n     * @return isForSale Whether the property is currently for sale\r\n     */\r\n    function getProperty(uint256 _propertyId) public view returns (\r\n        string memory name,\r\n        string memory location,\r\n        string memory description,\r\n        string memory imageUrl,\r\n        uint256 price,\r\n        uint256 size,\r\n        uint8 bedrooms,\r\n        uint8 bathrooms,\r\n        address owner,\r\n        bool isForSale\r\n    ) {\r\n        require(_propertyId < properties.length, \"Property does not exist\");\r\n        Property memory property = properties[_propertyId];\r\n        \r\n        return (\r\n            property.name,\r\n            property.location,\r\n            property.description,\r\n            property.imageUrl,\r\n            property.price,\r\n            property.size,\r\n            property.bedrooms,\r\n            property.bathrooms,\r\n            property.owner,\r\n            property.isForSale\r\n        );\r\n    }\r\n    \r\n    /**\r\n     * @dev Check if sender is the owner of a property\r\n     * @param _propertyId ID of the property to check\r\n     * @return true if msg.sender is the owner\r\n     */\r\n    function isOwner(uint256 _propertyId) public view returns (bool) {\r\n        require(_propertyId < properties.length, \"Property does not exist\");\r\n        return propertyOwner[_propertyId] == msg.sender;\r\n    }\r\n    \r\n    /**\r\n     * @dev Allow owner to update property price\r\n     * @param _propertyId ID of the property to update\r\n     * @param _newPrice New price in wei\r\n     */\r\n    function updatePropertyPrice(uint256 _propertyId, uint256 _newPrice) public {\r\n        require(_propertyId < properties.length, \"Property does not exist\");\r\n        require(propertyOwner[_propertyId] == msg.sender, \"Only owner can update price\");\r\n        require(_newPrice > 0, \"Price must be greater than zero\");\r\n        \r\n        properties[_propertyId].price = _newPrice;\r\n        \r\n        // Emit event for price update\r\n        emit PropertyUpdated(_propertyId, _newPrice, properties[_propertyId].isForSale);\r\n    }\r\n    \r\n    /**\r\n     * @dev Allow owner to toggle property sale status\r\n     * @param _propertyId ID of the property to toggle status\r\n     */\r\n    function toggleForSale(uint256 _propertyId) public {\r\n        require(_propertyId < properties.length, \"Property does not exist\");\r\n        require(propertyOwner[_propertyId] == msg.sender, \"Only owner can change sale status\");\r\n        \r\n        properties[_propertyId].isForSale = !properties[_propertyId].isForSale;\r\n        \r\n        // Emit event for sale status update\r\n        emit PropertyUpdated(_propertyId, properties[_propertyId].price, properties[_propertyId].isForSale);\r\n    }\r\n\r\n    /**\r\n     * @dev Allow owner to update property image\r\n     * @param _propertyId ID of the property to update\r\n     * @param _newImageUrl New image URL\r\n     */\r\n    function updateImageUrl(uint256 _propertyId, string memory _newImageUrl) public {\r\n        require(_propertyId < properties.length, \"Property does not exist\");\r\n        require(propertyOwner[_propertyId] == msg.sender, \"Only owner can update image\");\r\n        require(bytes(_newImageUrl).length > 0, \"Image URL cannot be empty\");\r\n        \r\n        properties[_propertyId].imageUrl = _newImageUrl;\r\n        \r\n        // Emit event for image update\r\n        emit PropertyUpdated(_propertyId, properties[_propertyId].price, properties[_propertyId].isForSale);\r\n    }\r\n\r\n    /**\r\n     * @dev Allow owner to update property details\r\n     * @param _propertyId ID of the property to update\r\n     * @param _price New price in wei\r\n     * @param _description New description\r\n     * @param _imageUrl New image URL\r\n     */\r\n    function updatePropertyDetails(\r\n        uint256 _propertyId,\r\n        uint256 _price,\r\n        string memory _description,\r\n        string memory _imageUrl\r\n    ) public {\r\n        require(_propertyId < properties.length, \"Property does not exist\");\r\n        require(propertyOwner[_propertyId] == msg.sender, \"Only owner can update details\");\r\n        require(_price > 0, \"Price must be greater than zero\");\r\n        \r\n        Property storage property = properties[_propertyId];\r\n        property.price = _price;\r\n        property.description = _description;\r\n        property.imageUrl = _imageUrl;\r\n        \r\n        emit PropertyUpdated(_propertyId, _price, property.isForSale);\r\n    }\r\n}",
  "sourcePath": "/home/hruday/Desktop/cs218/real-estate-marketplace/contracts/RealEstateMarketplace.sol",
  "compiler": {
    "name": "solc",
    "version": "0.8.19+commit.7dd6d404.Emscripten.clang"
  },
  "schemaVersion": "3.4.16",
  "updatedAt": "2025-04-29T20:22:02.939Z",
  "networkType": "ethereum",
  "devdoc": {
    "details": "Implements a decentralized marketplace for real estate properties",
    "kind": "dev",
    "methods": {
      "buyProperty(uint256)": {
        "details": "Buy a property that is for sale",
        "params": {
          "_propertyId": "ID of the property to purchase"
        }
      },
      "getProperty(uint256)": {
        "details": "Get a specific property by ID",
        "params": {
          "_propertyId": "ID of the property to retrieve"
        },
        "returns": {
          "bathrooms": "The number of bathrooms",
          "bedrooms": "The number of bedrooms",
          "description": "The description of the property",
          "imageUrl": "The URL or IPFS hash of the property image",
          "isForSale": "Whether the property is currently for sale",
          "location": "The location of the property",
          "name": "The name of the property",
          "owner": "The address of the property owner",
          "price": "The price of the property in wei",
          "size": "The size of the property in square feet"
        }
      },
      "getPropertyCount()": {
        "details": "Get total number of properties",
        "returns": {
          "_0": "Number of properties in the marketplace"
        }
      },
      "isOwner(uint256)": {
        "details": "Check if sender is the owner of a property",
        "params": {
          "_propertyId": "ID of the property to check"
        },
        "returns": {
          "_0": "true if msg.sender is the owner"
        }
      },
      "listProperty(string,string,string,string,uint256,uint256,uint8,uint8)": {
        "details": "List a new property for sale",
        "params": {
          "_bathrooms": "Number of bathrooms",
          "_bedrooms": "Number of bedrooms",
          "_description": "Description of the property",
          "_imageUrl": "IPFS hash or URL of the property image",
          "_location": "Location of the property",
          "_name": "Name of the property",
          "_price": "Price in wei",
          "_size": "Size in square feet"
        }
      },
      "toggleForSale(uint256)": {
        "details": "Allow owner to toggle property sale status",
        "params": {
          "_propertyId": "ID of the property to toggle status"
        }
      },
      "updateImageUrl(uint256,string)": {
        "details": "Allow owner to update property image",
        "params": {
          "_newImageUrl": "New image URL",
          "_propertyId": "ID of the property to update"
        }
      },
      "updatePropertyDetails(uint256,uint256,string,string)": {
        "details": "Allow owner to update property details",
        "params": {
          "_description": "New description",
          "_imageUrl": "New image URL",
          "_price": "New price in wei",
          "_propertyId": "ID of the property to update"
        }
      },
      "updatePropertyPrice(uint256,uint256)": {
        "details": "Allow owner to update property price",
        "params": {
          "_newPrice": "New price in wei",
          "_propertyId": "ID of the property to update"
        }
      }
    },
    "title": "RealEstateMarketplace",
    "version": 1
  },
  "userdoc": {
    "kind": "user",
    "methods": {},
    "version": 1
  }
}